:100000000C94FF000C94760E0C949D0E0C94C40E70
:100010000C94EB0E0C9427010C9427010C94120FF6
:100020000C9427010C94C20B0C945D160C94EF14E5
:100030000C9427010C9427010C9427010C942701A0
:100040000C9427010C9427010C9427010C94270190
:100050000C9427010C9427010C9427010C94390F60
:100060000C9427010C9427010C9427010C94270170
:100070000C9427010C9427010C9427010C94270160
:100080000C9427010C9427010C9427010C94270150
:100090000C9487040C9427010C9427010C942701DD
:1000A0000C9427010C94DF080C942701841087100E
:1000B00076107A108010A810A810A8108B108F103E
:1000C000931099109D10A810A310213E6733303E65
:1000D0003E63333200070605040100080A0B0C0DCD
:1000E000090000000200090F0000030401000C00D9
:1000F00000000000000000000000000000000004FC
:100100000802011040804010204080408008020416
:10011000018040201002011080102040400404049F
:10012000040403040502020202040302020202069E
:10013000060606060604040202020400000000236C
:1001400000260029002C002F0000000000250028B8
:10015000002B002E00310000000000240027002AA0
:10016000002D003000080B0002020201000904000B
:100170000001020200000524001001052401010114
:10018000042402060524060001070581031000402F
:1001900009040100020A00000007050202400000F5
:1001A0000705830240000012010002EF020140FB3C
:1001B0001F002300010102030112010002000000E0
:1001C00040FB1F0023000101020301506F6C6F6CA4
:1001D0007520436F72706F726174696F6E00506F3B
:1001E0006C6F6C7520412D5374617220333255341D
:1001F0000004030904009A025A042812C0021124C0
:100200001FBECFEFDAE0DEBFCDBF11E0A0E0B1E06E
:10021000E2EFF4E302C005900D92AC3AB107D9F7D2
:1002200023E0ACEAB1E001C01D92AD32B207E1F7C4
:1002300011E0CCEFD1E004C02297FE010E94181813
:10024000C63FD107C9F70E94F6160C946C1A0C949D
:1002500000005B98539A0895FC01A2EEB0E08C91E7
:1002600080831C92A9EEB0E08C9181831C92A0EF58
:10027000B0E08C9182831C920895FC01A9EEB0E05D
:100280001C9282818093F00081818C938081809385
:10029000E200089560FF02C02B9A01C02B98239AB8
:1002A00061FF02C0289A01C02898209A62FF02C00C
:1002B000479A01C047983F9A63FF02C05D9A01C008
:1002C0005D98559A5B9A539A85E08A95F1F70000FC
:1002D0005B98539A85E08A95F1F700000895809124
:1002E00006019091070166277727681B790B0E940A
:1002F000C00C1092B80181E08093B70108958091FD
:10030000060190910701BC019195819591090E9488
:10031000C00C81E08093B8011092B70108958091DC
:10032000060190910701BC0149960E94C00C1092F1
:10033000B8011092B70108950F93CF93DF9300D0C7
:100340001F92CDB7DEB740E052EC61E070E082EC86
:1003500092E00E94221286E189832BE041E0BE01F7
:100360006F5F7F4F85ED91E00E94E00C82E1898311
:1003700085E18A838CE08B830BE020ED37E043E05E
:10038000BE016F5F7F4F89EB91E00E94860B89EC85
:1003900091E00E94400A0E948F010F900F900F90F1
:1003A000DF91CF910F91089560E070E080E090E0E0
:1003B0000E94C00C1092B8011092B70108956CE928
:1003C0007FEF8CE99FEF0E94C00C1092B801109251
:1003D000B701089520E05D99216055992260FC01E4
:1003E00020830895FC01208121FB0EF0559820FB0D
:1003F0000EF05D980EF45D9A21FB0EF4559A089567
:1004000020E02899216020992260FC012083089532
:10041000FC01208121FB0EF0209820FB0EF0289893
:100420000EF4289A21FB0EF4209A0895FF920F9360
:100430001F93CF93DF93CDB7DEB72A970FB6F8940B
:10044000DEBF0FBECDBF8C01F62ECE0101962A87EE
:1004500049870E942C0130E05A99316052993260EC
:100460003E8330E02B993160239932603F83CE0187
:1004700005960E94000230E0479931603F99326052
:100480003887CE0104960E94EA0149852A854423D3
:1004900011F05A9A01C05A98529A21110AC06F2D30
:1004A00070E084E0759567958A95E1F7C8010E9430
:1004B0004A016F2D6F70C8010E944A01CE01049657
:1004C0000E94F201288521FB0EF03F9820FB0EF0E0
:1004D00047980EF4479A21FB0EF43F9ACE010596F9
:1004E0000E9408023F8131FB0EF0239830FB0EF092
:1004F0002B980EF42B9A31FB0EF4239A2E8121FBBC
:100500000EF0529820FB0EF05A980EF45A9A21FBE6
:100510000EF4529ACE0101960E943D012A960FB622
:10052000F894DEBF0FBECDBFDF91CF911F910F9129
:10053000FF90089582EE91E00E943D0987E491E0EA
:100540009093E3018093E20185ED91E00E94CA0C53
:1005500021E041E06EE089EC91E00E944A0A81E4EA
:1005600091E09093CA018093C90189EB91E00E94C8
:10057000760B83E591E09093BA018093B9010895D9
:1005800089E991E09093BA018093B90189EB91E0F8
:100590000C94980B1F93CF93DF9318E0C0E0D0E04A
:1005A00083E10E943B10C80FD91F1150C9F79E016B
:1005B000A1E7B2E00E941C1861507F4F8F4F9F4F00
:1005C00039E096958795779567953A95D1F7EB0140
:1005D0004AE050E082EC92E00E94C112C436D94158
:1005E00068F40E94D4018AEC90E00E94300960ED2A
:1005F00077E080E090E00E94B20FF5CF82EC92E0CD
:100600000E947B112091B0013091B10112161306A6
:1006100004F5F901E555FE4F80832430310561F57D
:100620006091AE0170E0762F66278091AF01680F70
:10063000711D8091AC0190E0982F88272091AD0129
:10064000820F911D0E94C00C1092B1011092B00156
:1006500013C0893319F41092B2010EC0883321F40B
:1006600081E08093B2018BC08A3331F481E090E065
:100670009093B1018093B00185ED91E00E94A90DA6
:1006800066E185ED91E00E945E0E682F85ED91E0B8
:100690000E943C0EC82F66E185ED91E00E945E0E3F
:1006A000682F85ED91E00E944D0ED82FC53010F4D3
:1006B000853010F12091B3013091B4012F5F3F4F8D
:1006C0003093B4012093B3012091B3013091B40170
:1006D0002436310540F00E94DF0168EE73E080E0CF
:1006E00090E00E94B20F2091060130910701C330C3
:1006F00040F4D33030F43BC01092B4011092B301F7
:10070000E3CF2A503109309307012093060181E09D
:1007100020910601309107012436310530F0293C43
:10072000310528F028EC30E002C024E630E03093B8
:10073000070120930601882311F10E94830F709313
:10074000B6016093B501DC1730F40E946F0181E0BF
:100750008093080114C0CD1728F40E947F011092E5
:1007600008010DC0DF91CF911F910C948F01265F7E
:100770003F4F309307012093060180E0C9CFDF91FE
:10078000CF911F9108958091180290E02091190255
:10079000821B91090895209119028091180228174F
:1007A00050F4E22FF0E0E65EFD4F808190E02F5F95
:1007B0002093190208958FEF9FEF0895E091190299
:1007C00080911802E81730F4F0E0E65EFD4F80817A
:1007D00090E008958FEF9FEF08950895CF92DF92F4
:1007E000EF92FF920F931F93CF93DF937C01CB0186
:1007F0008A012091F501222389F0EB016B01C40EDF
:10080000D51ECC15DD0569F06991D701ED91FC91FC
:100810000190F081E02DC7010995F3CF642F0E946C
:100820005E04C801DF91CF911F910F91FF90EF906F
:10083000DF90CF900895CF93DF931F92CDB7DEB7AF
:1008400069832091F5012223D1F02091F601203215
:1008500040F021E030E0FC013383228380E090E02F
:1008600015C08091F701E82FF0E0E850FE4F998124
:1008700090838F5F8093F7018093F60105C061E05C
:10088000CE0101960E945E0481E090E00F90DF911E
:10089000CF910895FC011382128248EE53E060E08C
:1008A00070E0448355836683778389E591E0918383
:1008B0008083089589EE91E00C944A04613298F4A3
:1008C0002091A702243089F460935C02FC018EE53C
:1008D00092E0DC012A2F281B261718F421912D9372
:1008E000F9CF80E0089581E0089582E0089585EDD4
:1008F0008093BC008091BC0084FDFCCF1092A702C5
:10090000089585EC8093BC001092A70208951F9271
:100910000F920FB60F9211242F933F934F935F9333
:100920006F937F938F939F93AF93BF93EF93FF93B7
:100930008091B900887F803609F49EC078F58832AE
:1009400009F45DC090F4803109F456C038F488236E
:1009500009F4F5C0883009F44FC0F5C0883109F4B6
:100960004EC0803209F45FC0EEC0803409F46AC022
:1009700058F4803309F457C0883309F0E4C08093F9
:100980003A020E948104DFC0803509F44FC08835E7
:1009900009F45DC0883409F0D6C0D3C0883909F4A1
:1009A000C4C0A8F4883709F467C038F4883609F45D
:1009B00063C0803709F460C0C6C0883809F4B5C088
:1009C000803909F45FC0803809F0BDC05BC0803B4E
:1009D00009F483C038F4803A09F466C0883A09F40F
:1009E0007CC0B1C0803C09F4A4C0883C09F4A1C01B
:1009F000883B09F487C0A7C08091A60210C09091DF
:100A00007F0280917E02981770F5E0917F0281E06D
:100A10008E0F80937F02F0E0E058FD4F808180933D
:100A2000BB0085EC83C080933A028BC0E0917F02CB
:100A300081E08E0F80937F028091BB00F0E0E05850
:100A4000FD4F808390917F0280917E026BC0E09188
:100A50007F0281E08E0F80937F028091BB00F0E0E7
:100A6000E058FD4F80838091A50281116AC081E02A
:100A70008093A40284EA5EC083E08093A702109270
:100A80003B02CFCF80913B02803208F04EC0E09114
:100A90003B0281E08E0F80933B028091BB00F0E02F
:100AA000E45CFD4F8083BDCF0E94810480913B02B6
:100AB000803230F4E0913B02F0E0E45CFD4F1082C4
:100AC00060913B0270E0E091A002F091A1028CE302
:100AD00092E0099510923B0236C084E08093A70211
:100AE00010925D0210925C02E091A202F091A302CA
:100AF000099580915C02811105C081E080935C02C0
:100B000010925E02E0915D0281E08E0F80935D02A3
:100B1000F0E0E25AFD4F80818093BB0090915D022E
:100B200080915C02981708F47CCF85E88093BC0024
:100B30000AC085EC8093BC001092A70204C01092FA
:100B40003A020E947704FF91EF91BF91AF919F917C
:100B50008F917F916F915F914F913F912F910F9066
:100B60000FBE0F901F9018959091AA02E091AE02CF
:100B7000F091AF02992311F0849101C080812FEB95
:100B8000280F2A3110F4805E0895803249F49F01C5
:100B90002F5F3F4F3093AF022093AE02EF2B31F720
:100BA00008951F93CF93DF930E94B405C0E0D0E077
:100BB0001AE090ED980F9A30B8F49E01129FE00170
:100BC000139FD00D1124C80FD11D87FDDA95E09732
:100BD0008091AE029091AF0201969093AF02809304
:100BE000AE020E94B405E5CFCE01DF91CF911F91F7
:100BF0000895109272001092C00084E08093C100AA
:100C000089E08093C20081E08093C300EFEBF0E0C5
:100C100083E0808388EE8093D10010821092D2000E
:100C2000579A789408952F923F924F925F926F92C5
:100C30007F928F929F92AF92BF92CF92DF92EF926C
:100C4000FF920F931F93CF93DF93CDB7DEB7279714
:100C50000FB6F894DEBF0FBECDBF7C011B014D83E4
:100C60008091B002811105C081E08093B0020E94A2
:100C7000F90510921201F7FE04C0E894F7F81AE0A3
:100C800001C011E088E2189F802D1124282F30E048
:100C90003F832E832E153F0510F4FF82EE82113024
:100CA00049F44E815F814131574220F0E0E1F7E2A3
:100CB000FF83EE83812E912CA12CB12C8E819F81FC
:100CC000969587959C0140E050E029833A834B83B9
:100CD0005C834E815F812A01612C712CA5019401F6
:100CE00060E072E18AE790E00E94A51729813A81CD
:100CF0004B815C81620F731F841F951FA3019201BA
:100D00000E94F71769017A01EE24FF2400E00F5FCB
:100D1000C11434E0D306E104F10408F120E032E12B
:100D20004AE750E0002E04C0559547953795279522
:100D30000A94D2F7C501B4010E94A51729813A810E
:100D40004B815C81620F731F841F951FA301920169
:100D50000E94F71769017A01EE24FF24D8CF1A30D8
:100D600049F48E819F8105966AE070E00E94C11768
:100D70007F836E834E815F81483E83E0580759F040
:100D80009101DA010E941C1828EE33E040E050E0A7
:100D90000E94F7171901109272008091C100807FA4
:100DA000802B8093C100BB27AF2D9E2D8D2D80936E
:100DB000BF00C092D1002D81203108F02FE080E1EA
:100DC00090E0821B910904C0F694E794D794C794ED
:100DD0008A95D2F78D2D99278093BF00C092D200BB
:100DE0003092AD022092AC0289B38FEF89BB84E0D0
:100DF0008093720027960FB6F894DEBF0FBECDBF6A
:100E0000DF91CF911F910F91FF90EF90DF90CF90E6
:100E1000BF90AF909F908F907F906F905F904F901A
:100E20003F902F900895CF93DF93EB018F3F11F008
:100E3000411105C040E0BE0188EE93E043C081311E
:100E400030F050EF580F503618F05FE501C050E019
:100E5000852F6CE00E94B517682F74EF7603900120
:100E60001124250F311D2C30310540F4F901EE0F0E
:100E7000FF1FEB59FE4F2081318102C020E030E09E
:100E8000873081F0082E02C0220F331F0A94E2F748
:100E9000823028F0C90105966AE070E00CC0C901F3
:100EA00090580CC0C90136E0880F991F3A95E1F7B8
:100EB000029665E070E00E94C117CB01403108F056
:100EC0004FE0BE01DF91CF910C9413064F925F92D9
:100ED0006F927F928F929F92AF92BF92CF92DF924A
:100EE000EF92FF920F931F93CF93DF9300D0CDB774
:100EF000DEB7909011018091A902882321F06091C2
:100F0000A802611117C077247394B0ECAB2EBDE535
:100F1000BB2E1AE0612E04E0802E80EDC82E87E003
:100F2000D82E94E0E92EF12C04EF11E02FE0422EB0
:100F3000512C15C070E040E088EE93E00E9413064B
:100F40001092A80229C18636D4F5813609F4A9C0C9
:100F50007CF58C3309F460C08E3381F493940E9445
:100F6000B4052091AE023091AF022F5F3F4F309316
:100F7000AF022093AE02853631F752C0813209F0BC
:100F80008BC080921101D0921001C0920F01F0929B
:100F90000E01E0920D0110930C0100930B01509291
:100FA0000A01409209011092A902A4E09A2ED7CF1B
:100FB0008336A1F10CF478C010E082E077C08D3662
:100FC000C1F194F4873691F174F18C3609F064C064
:100FD0000E94D105BC0190930E0180930D01809178
:100FE0000F019091100151C08237C9F14CF48F3636
:100FF00009F052C00E94D105982E80931101AFCF05
:10100000843781F1863709F047C00E94D10590935B
:101010000A0180930901A3CF9A94A1CF10E020C0C8
:1010200010E084E043C010E085E040C010E087E0BD
:101030003DC00E94B4058C3619F41092A90204C078
:101040007092A9021092A8022091AE023091AF02D4
:101050002F5F3F4F3093AF022093AE0280CF11E05D
:1010600080E024C00E94D105BC01C5010E94C117C7
:10107000669EC001679E900D11249093100180938D
:101080000F0160910D0170910E010E94C1177093C4
:101090000C0160930B0163CF1092AF021092AE026D
:1010A0007BC010E089E002C010E08BE0082F9CE0DC
:1010B000999E000D11240E94B405982F977F9332BA
:1010C00061F42091AE023091AF022F5F3F4F309319
:1010D000AF022093AE020F5FEECF8D3271F42091FC
:1010E000AE023091AF022F5F3F4F3093AF0220939B
:1010F000AE0201500E94B405F0CF60910B017091D7
:101100000C018153883050F4E0900F01F0901001F1
:101110000E94D105BC01C7010E94C1177B01F69452
:10112000E79469837A830E94B40569817A818E325B
:1011300069F42091AE023091AF022F5F3F4F3093A0
:10114000AF022093AE026E0D7F1DE9CF8091A90200
:10115000882339F09B01369527952093A802621BBE
:10116000710940910901112311F08FEF01C0802F07
:101170000F900F90DF91CF911F910F91FF90EF9003
:10118000DF90CF90BF90AF909F908F907F906F90A7
:101190005F904F900C9413070F900F90DF91CF91B9
:1011A0001F910F91FF90EF90DF90CF90BF90AF9085
:1011B0009F908F907F906F905F904F9008951F92B7
:1011C0000F920FB60F9211242F933F934F935F937B
:1011D0006F937F938F939F93AF93BF93EF93FF93FF
:1011E0008091AC029091AD029C0121503109309365
:1011F000AD022093AC02892B11F510927200789405
:101200008091C100807F84608093C10083E08093DF
:10121000BF0088EE8093D1001092BF001092D200E0
:1012200081E0809312018091AE029091AF02892BF0
:1012300031F08091AB02811102C00E946607FF91DC
:10124000EF91BF91AF919F918F917F916F915F913E
:101250004F913F912F910F900FBE0F901F901895B7
:10126000109272009093AF028093AE0281E080935F
:10127000AA021092A8020C946607FC011382128243
:1012800081E891E091838083148208951F93CF9326
:10129000DF93EC01162F64600E94C0091E83DF916A
:1012A000CF911F910895CF93DF93EC01E881F981ED
:1012B0000480F581E02D099563E0CE010E94BC0910
:1012C0008FE991E40197F1F700C0000063E0CE01DF
:1012D0000E94BC0987E592E00197F1F700C0000089
:1012E00063E0CE010E94BC0962E0CE010E94BC090D
:1012F00068E2CE010E94C00960E0CE010E94CE09E2
:10130000CE010E94C40962E0CE010E94460964E059
:10131000CE01DF91CF910C94CE090F931F93CF9301
:10132000DF9300D01F92CDB7DEB78C01DC0114969D
:101330008C91149781110CC081E014968C93C80194
:101340002B834A8369830E94530969814A812B81D7
:10135000D801ED91FC910680F781E02DC801099537
:10136000B5ECBA95F1F700000F900F900F90DF9158
:10137000CF911F910F91089521E040E00C948D09C9
:1013800020E040E00C948D0961E00E94C0098FE3E9
:101390009FE10197F1F700C0000008951F93CF93DC
:1013A000DF93EC01162F68600E94C0091D83DF9156
:1013B000CF911F91089520E041E00C948D090E9487
:1013C000DB0981E090E00895CF92DF92EF92FF92E7
:1013D0000F931F93CF93DF937C018A01EB016B0185
:1013E000C40ED51ECC15DD0529F06991C7010E94F8
:1013F000DB09F8CFC801DF91CF911F910F91FF90CA
:10140000EF90DF90CF900895CF93DF93EC01E881C8
:10141000F9810190F081E02DCE0109958823B9F37F
:101420006AE070E080E090E00E94B20FE881F9810C
:101430000190F081E02DCE010995882341F3DF91E1
:10144000CF910895CF93DF93EC01E881F98101906A
:10145000F081E02DCE0109958111F7CF6AE070E0AF
:1014600080E090E00E94B20FE881F9810190F08164
:10147000E02DCE0109958111E8CFDF91CF9108953C
:10148000CF93DF93EC010E94040ACE01DF91CF914C
:101490000C94220AFC01128215828DE891E091835E
:1014A00080831086618781E0411101C080E08287DE
:1014B00081E0211101C080E083870895FC018285CD
:1014C000882311F062E001C060E081850E94A910CC
:1014D00085E090E00C94DA0FCF93DF93EC018885E0
:1014E000811105C081E08887CE010E945E0A89854E
:1014F0000E9418112B8530E041E08217930709F410
:1015000040E0842FDF91CF9108956F927F928F9268
:101510009F92AF92BF92CF92DF92EF92FF920F9382
:101520001F93CF93DF93EC018B018A859B85892BD9
:1015300009F474C0D12C8C85D816E8F4ED2CF12C6C
:101540008E859F85F701EE0FFF1FE00FF11F91833E
:101550008083EA85FB85EE0DFF1D61E080810E949E
:10156000E210EA85FB85EE0DFF1D61E080810E949F
:10157000A910D394E0CF8AE090E00E94DA0FD12C3A
:101580008C85D816A0F4ED2CF12CEA85FB85EE0DA8
:10159000FF1D60E080810E94A910EA85FB85EE0DA9
:1015A000FF1D60E080810E94E210D394E9CF0E9489
:1015B0008F0F6B017C010E948F0F6C197D098E09C2
:1015C0009F092E853F854901A12CB12C681579050D
:1015D0008A059B0518F50E948F0F3B016C187D084A
:1015E000912C8C85981638F7A92CB12CAA85BB852F
:1015F000AA0DBB1D8C910E941811892B51F4F50185
:10160000EE0FFF1FE00FF11F8081918168167906B0
:1016100010F09394E6CF71826082FBCFDF91CF917F
:101620001F910F91FF90EF90DF90CF90BF90AF9000
:101630009F908F907F906F900895EF92FF920F93FD
:101640001F93CF93DF931F92CDB7DEB77C018B0141
:10165000DC0113961C921E92129715961C921E92F4
:10166000149717961C921E92169719961C921E920A
:101670001897413120F080E11C968C9302C0FC0148
:101680004487D7011A968D919C911B97892B11F055
:1016900030E00FC0F701848590E029830E9436185E
:1016A000D7011B969C938E931A972981892B81F7DA
:1016B00015C0F7018485381780F4832F90E0F80176
:1016C000E80FF91F4081D7011A96ED91FC911B9705
:1016D000E80FF91F40833F5FECCF25870F90DF9124
:1016E000CF911F910F91FF90EF900895FC0189E930
:1016F00091E0918380831382128215821482178273
:10170000168211861086138612860895EF92FF9234
:101710000F93CF93DF93EC017901202F0E941D0BD3
:10172000FF86EE86DF91CF910F91FF90EF900895A5
:10173000CF93DF93EC0183E991E0998388838A85D5
:101740009B85009711F00E94CE188C819D81009797
:1017500011F00E94CE1888859985009711F00E949B
:10176000CE188A819B81009711F00E94CE188E813D
:101770009F81009721F0DF91CF910C94CE18DF91DB
:10178000CF9108951F920F920FB60F9211242F93AD
:101790003F934F935F936F938F939F932CB130E060
:1017A0003595279535952795422F417083B190E067
:1017B00054E0959587955A95E1F782279327582FFE
:1017C00051708091B4026091B5022091B1023091C4
:1017D000B202852790E06427861B9109820F931F30
:1017E0009093B2028093B1029091B5028091B402BD
:1017F000591729F0481719F081E08093B3025093EC
:10180000B5024093B4029F918F916F915F914F9178
:101810003F912F910F900FBE0F901F90189510922F
:1018200071009B014617570708F49A0146983E98A5
:1018300060E86093900010929100609392003E9A4D
:10184000892B11F08E9A01C08E98869A509397003A
:101850004093960041505109509395004093940055
:10186000309399002093980082E88093900089E15A
:1018700080939100089546983E9AE0E9F0E082E076
:101880008083109291001092710010821092990042
:101890001092980010929700109296001092950066
:1018A0001092940086988E9808952E98269A2D98D6
:1018B000259A2A98229A2998219A80EA8093800072
:1018C00081E18093810080E991E09093870080938B
:1018D0008600109289001092880010928B0010925E
:1018E0008A0008958091B602811105C081E080933D
:1018F000B6020C94550C0895CF93DF93EC010E942F
:10190000720CD7FF05C0D195C195D10981E001C006
:1019100080E0C13991E0D90714F0C0E9D1E0D0935B
:101920008B00C0938A009091B802891711F02A9A0F
:1019300001C02A98229ADF91CF910895CF93DF9327
:10194000EC010E94720CD7FF05C0D195C195D10959
:1019500081E001C080E0C13991E0D90714F0C0E90D
:10196000D1E0D0938900C09388009091B702891785
:1019700011F0299A01C02998219ADF91CF910895F9
:10198000CF93DF93EB010E947C0CCE01DF91CF91CE
:101990000C949E0CFC011182108212828FEF8383C3
:1019A00015821482168285EA91E09287818782E40B
:1019B00092E09487838784EA91E0908787830895F3
:1019C000EF92FF920F931F93CF93DF931F92CDB7A8
:1019D000DEB77C01162F072FFC012383F3E04F9F16
:1019E000B0011124FC018081918149830E945D191D
:1019F00049810097C1F0F701918380834283312FA1
:101A0000612F702F80E090E0262F231B241758F4BD
:101A1000FB012191BF01F701A081B181A80FB91F7E
:101A20002C930396F1CF0F90DF91CF911F910F91DF
:101A3000FF90EF900895BF92CF92DF92EF92FF92C6
:101A40000F931F93CF93DF938C016B01B42EC42FA0
:101A5000D0E0CC0FDD1FBE01F801848195810E948A
:101A60005D197C01009741F0AE01B6010E942C1A6D
:101A7000F801F582E482B682DF91CF911F910F9138
:101A8000FF90EF90DF90CF90BF9008951F93CF937A
:101A9000DF93EC0110E08A81181778F4E881F9816E
:101AA00083E0189FE00DF11D112480818E3118F420
:101AB00062E00E94A9101F5FEECFDF91CF911F91CE
:101AC0000895CF93DF93EC018B818E3168F460E051
:101AD0000E94E21061E08B810E94A9108B859C8599
:101AE000DF91CF910C94DA0FDF91CF9108950F938E
:101AF0001F93CF93DF93CDB7DEB72C970FB6F89433
:101B0000DEBF0FBECDBF8C010E94460DC8010E94F2
:101B1000610DF80184819581892B81F48CE0E1E3EA
:101B2000F1E0DE01119601900D928A95E1F746E011
:101B3000BE016F5F7F4FC8010E941B0D2C960FB630
:101B4000F894DEBF0FBECDBFDF91CF911F910F91F3
:101B50000895CF92DF92EF92FF920F931F93CF934E
:101B6000DF93EC010E94770D20E08A81281780F432
:101B700033E0239FC0011124E881F981E80FF91FA8
:101B80001282E881F981E80FF91F11822F5FEDCFF2
:101B9000F12C8E81F81608F066C09C818D81E92FAA
:101BA000F82FEF0DF11DEF0DF11D008111814F8117
:101BB0005885B80180E090E00E940F0C89859A85D5
:101BC0000E94DA0FE12C8A81E816C0F483E0E89ED7
:101BD00060011124E881F981EC0DFD1D80818E31B9
:101BE00058F40E941811892B39F4E881F981EC0D21
:101BF000FD1D81818F5F8183E394E5CF0E943B0CC3
:101C00008B859C850E94DA0F4F815885B80181E051
:101C100090E00E940F0C89859A850E94DA0FD12CE2
:101C20008A81D816C0F433E0D39E80011124E88164
:101C3000F981E00FF11F80818E3158F40E94181154
:101C4000892B39F4E881F981E00FF11F82818F5FE0
:101C50008283D394E5CF0E943B0C8B859C850E94A8
:101C6000DA0FF39496CFDF91CF911F910F91FF90F0
:101C7000EF90DF90CF900895DC0112962C9112978F
:101C8000621748F4ED91FC91B3E06B9FE00DF11DFC
:101C900011248181089580E00895DC0112962C9131
:101CA0001297621748F4ED91FC91B3E06B9FE00D41
:101CB000F11D11248281089580E00895DC011296BF
:101CC0009C91129720E030E080E0891761F0ED915F
:101CD000FC911197E20FF31F40812D5F3F4F461794
:101CE00019F08F5FF2CF8FEF089508951F920F9232
:101CF0000FB60F9211242F933F934F935F936F93DF
:101D00007F938F939F93AF93BF93EF93FF93E09154
:101D10001301F09114010995FF91EF91BF91AF91DB
:101D20009F918F917F916F915F914F913F912F91F3
:101D30000F900FBE0F901F9018951F920F920FB625
:101D40000F9211242F933F934F935F936F937F9341
:101D50008F939F93AF93BF93EF93FF93E091150100
:101D6000F09116010995FF91EF91BF91AF919F916D
:101D70008F917F916F915F914F913F912F910F9034
:101D80000FBE0F901F9018951F920F920FB60F92D3
:101D900011242F933F934F935F936F937F938F9370
:101DA0009F93AF93BF93EF93FF93E0911701F0914F
:101DB00018010995FF91EF91BF91AF919F918F917C
:101DC0007F916F915F914F913F912F910F900FBE37
:101DD0000F901F9018951F920F920FB60F9211241B
:101DE0002F933F934F935F936F937F938F939F9323
:101DF000AF93BF93EF93FF93E0911901F0911A0114
:101E00000995FF91EF91BF91AF919F918F917F9134
:101E10006F915F914F913F912F910F900FBE0F9057
:101E20001F9018951F920F920FB60F9211242F93A7
:101E30003F934F935F936F937F938F939F93AF9352
:101E4000BF93EF93FF93E0911B01F0911C01099563
:101E5000FF91EF91BF91AF919F918F917F916F9182
:101E60005F914F913F912F910F900FBE0F901F9058
:101E700018951F920F920FB60F9211242F933F9334
:101E80008F939F93AF93BF938091BA029091BB02BF
:101E9000A091BC02B091BD023091B90223E0230FA2
:101EA0002D3720F40196A11DB11D05C026E8230F92
:101EB0000296A11DB11D2093B9028093BA0290939E
:101EC000BB02A093BC02B093BD028091BE02909170
:101ED000BF02A091C002B091C1020196A11DB11D27
:101EE0008093BE029093BF02A093C002B093C10240
:101EF000BF91AF919F918F913F912F910F900FBE06
:101F00000F901F9018952FB7F8946091BA027091B6
:101F1000BB028091BC029091BD022FBF08953FB7D4
:101F2000F8948091BE029091BF02A091C002B0913E
:101F3000C10226B5A89B05C02F3F19F00196A11D2F
:101F4000B11D3FBF6627782F892F9A2F620F711D11
:101F5000811D911D42E0660F771F881F991F4A95CA
:101F6000D1F70895CF92DF92EF92FF92CF93DF9354
:101F70006B017C010E948F0FEB01C114D104E104BD
:101F8000F10489F00E9409170E948F0F6C1B7D0BD2
:101F9000683E734090F381E0C81AD108E108F10867
:101FA000C851DC4FEACFDF91CF91FF90EF90DF90E7
:101FB000CF9008958230910538F0880F991F880FCF
:101FC000991F05970197F1F70895789484B5826079
:101FD00084BD84B5816084BD85B5826085BD85B5CD
:101FE000816085BDEEE6F0E0808181608083E1E87C
:101FF000F0E01082808182608083808181608083B4
:10200000E0E8F0E0808181608083E1E9F0E08081B8
:1020100082608083808181608083E0E9F0E080815C
:1020200081608083E1ECF0E0808184608083808146
:1020300082608083808181608083E3ECF0E0808136
:1020400081608083E0ECF0E0808182608083E2EC5C
:10205000F0E0808181608083EAE7F0E08081846045
:1020600080838081826080838081816080838081A1
:10207000806880830895823108F08251E82FF0E073
:10208000EB52FF4FE49180917B00E3FB222720F984
:1020900030E095E0220F331F9A95E1F78F7D822B78
:1020A00080937B00E77080911D0120E4829FC00136
:1020B0001124E82BE0937C0080917A008064809367
:1020C0007A0080917A0086FDFCCF80917800209183
:1020D000790090E0922B089590E0FC013197EF3069
:1020E000F105B0F5EA5AFF4F0C9416188091800064
:1020F0008F7703C0809180008F7D8093800008954A
:1021000080918000877FF9CF84B58F7702C084B536
:102110008F7D84BD0895809190008F7707C0809156
:1021200090008F7D03C080919000877F8093900006
:1021300008958091C0008F7703C08091C0008F7D8B
:102140008093C00008958091C200877F8093C20071
:102150000895CF93DF9390E0FC01E150FF4F24916D
:10216000FC01E35EFE4F8491882349F190E0880FE3
:10217000991FFC01E95AFE4FA591B491875B9E4FD0
:10218000FC01C591D4919FB7611108C0F8948C915E
:10219000209582238C93888182230AC0623051F477
:1021A000F8948C91322F309583238C938881822BE5
:1021B000888304C0F8948C91822B8C939FBFDF910D
:1021C000CF9108950F931F93CF93DF931F92CDB7B5
:1021D000DEB7282F30E0F901EF51FF4F8491F9016C
:1021E000E150FF4F1491F901E35EFE4F049100238B
:1021F000C9F0882321F069830E946C106981E02F67
:10220000F0E0EE0FFF1FE75BFE4FA591B4919FB783
:10221000F8948C91611103C01095812301C0812B2A
:102220008C939FBF0F90DF91CF911F910F910895D5
:10223000CF93DF93282F30E0F901EF51FF4F8491C6
:10224000F901E150FF4FD491F901E35EFE4FC491D3
:10225000CC2391F081110E946C10EC2FF0E0EE0F76
:10226000FF1FE55CFE4FA591B4912C912D2381E0D9
:1022700090E021F480E002C080E090E0DF91CF9117
:102280000895CF93DF931F92CDB7DEB76983DC014A
:10229000ED91FC910280F381E02D41E050E0BE0120
:1022A0006F5F7F4F09950F90DF91CF910895CF9386
:1022B000DF93EC018C859D8597FF05C082E00E942D
:1022C000D8139D878C878C859D85DF91CF9108954C
:1022D00083E00C945316FC018485958597FD06C018
:1022E00082E00E94801390E00196089582E00E94AF
:1022F000801390E00895FC018485958597FD05C0C5
:102300002FEF3FEF35872487089582E00C94D81390
:10231000CF93DF93EC0180912901882331F083E092
:102320000E9409141816190634F081E090E09B838E
:102330008A8380E090E0DF91CF910895FC012081B5
:102340002E5F208342E450E065E671E080E80C9463
:10235000A414FC0121818081813A59F4213209F0D1
:102360005CC047E050E062E271E080E00E94A414AB
:1023700067C0813209F051C0233289F4838190E033
:10238000982F88273281832BA0E0B0E080931E0134
:1023900090931F01A0932001B09321010FC0203220
:1023A00039F467E070E082E291E00E94D5140AC03F
:1023B000223221F482818093290104C02D7F2032B2
:1023C00009F03EC08091220190912301A091240147
:1023D000B0912501803B9440A105B10501F58091A4
:1023E000290180FD1CC08091000890910108909304
:1023F000FF0A8093FE0A87E797E79093010880938E
:1024000000082BE088E190E00FB6F894A89580933F
:1024100060000FBE2093600013C080E0089588E143
:102420000FB6F89480936000109260000FBEA895DC
:102430008091FE0A9091FF0A909301088093000812
:1024400081E008952FEF3FEFFC0135872487089541
:102450001092C5021092C40288EE93E0A0E0B0E0B2
:102460008093C6029093C702A093C802B093C9029A
:102470008FE991E09093C3028093C2028FEF9FEFA8
:102480009093CF028093CE0208956115710581F07B
:10249000DB010D900020E9F7AD0141505109461BC9
:1024A000570BDC01ED91FC910280F381E02D099442
:1024B00080E090E008958F929F92AF92BF92CF926A
:1024C000DF92EF92FF920F931F93CF93DF93CDB7DD
:1024D000DEB7A1970FB6F894DEBF0FBECDBF7C016B
:1024E000C42EE52FCB01D22E19A221E02D1510F01C
:1024F0002AE0D22E8E010F5D1F4F8D2C912CA12C26
:10250000B12C6C2D7E2FA50194010E94D5178C2D26
:10251000D29E80191124015011098A3014F4805D73
:1025200001C0895CF8018083211531054105510501
:1025300021F0C22EE32FCA01E4CFB801C7010E94E7
:102540004512A1960FB6F894DEBF0FBECDBFDF9146
:10255000CF911F910F91FF90EF90DF90CF90BF90A0
:10256000AF909F908F9008952115310541F4DC01C3
:10257000ED91FC910190F081E02D642F09940C9471
:102580005B129A01AB0160E070E00C94B4126150F0
:1025900030F02091F100FC0120830196F8CF2898BB
:1025A00084E680931B03089540911603509117030E
:1025B000209114033091150342175307B4F49091FE
:1025C000E8009570E1F39091E80092FD19C08093C6
:1025D000F100809116039091170301968F7399274C
:1025E000892B19F48EEF8093E80080911603909167
:1025F00017030196909317038093160381E00895C3
:1026000080E00895CF92DF92EF92FF920F931F9395
:10261000CF93DF931F92CDB7DEB7082F162FF42E7E
:10262000862F880F8E5F99830E94D41283E00E94C8
:10263000D412E02EC02E9981D92E8C2D8E1981179F
:1026400098F4F601F7FE02C0849101C080810E94D7
:10265000D412082F80E00E94D4128023FFEFCF1AFB
:10266000DF0A8111EACF01C081E00F90DF91CF91A5
:102670001F910F91FF90EF90DF90CF900895809180
:10268000D70081608093D70080EA8093D80089B515
:10269000806189BD89B5826089BD09B400FEFDCF26
:1026A00061E070E080E090E00E94B20F8091D8007D
:1026B0008F7C80618093D8008091E000807F809340
:1026C000E0000895CF93DF931F92CDB7DEB7198254
:1026D000CE0101960E949E110E949117BE016F5F6C
:1026E0007F4F0E940A1789810F90DF91CF91089543
:1026F0002FB7FC012083F89467706093E900089578
:10270000CF93DF931F92CDB7DEB7682FCE0101962E
:102710000E9478138091F20099819FBF0F90DF9102
:10272000CF910895FF920F931F93CF93DF9300D023
:10273000CDB7DEB7F62E8A0190911A03992311F0D6
:1027400057FF03C08FEF9FEF2BC0682FCE0101967C
:102750007A830E9478138091F20090E0A8017A8138
:10276000801791070CF4AC01EF2DF72FF40E84E6DF
:10277000FE1639F0289880931B039091F1009193F5
:10278000F7CF4115510521F08091F200882321F007
:1027900089818FBFCA0104C08BE68093E800F8CF1F
:1027A0000F900F90DF91CF911F910F91FF9008959F
:1027B000CF93DF931F92CDB7DEB741E050E0BE016B
:1027C0006F5F7F4F0E949213019719F4898190E007
:1027D00002C08FEF9FEF0F90DF91CF910895CF93BD
:1027E000DF931F92CDB7DEB7682FCE0101960E940E
:1027F00078139091E800892F807295FF04C0909122
:10280000F20080E4891B99819FBF0F90DF91CF91E7
:1028100008956F927F928F929F92AF92BF92CF92C4
:10282000DF92EF92FF920F931F93CF93DF931F924C
:10283000CDB7DEB7782E7B01C42EB52E80911A035A
:10284000882369F0042F152F8AEFD82E872D8072E8
:10285000982E9AE3A92E872D8074882E11C08FEFB1
:102860009FEF57C0872D0E94EF13682E81110CC077
:10287000DA94A9F361E070E080E090E00E94B20F8A
:102880000115110579F73BC0282F30E00217130717
:102890000CF4602E672DCE0101960E947813809172
:1028A000E80085FF29C0262D30E0021B130B99207C
:1028B00039F06A948FEF6816B1F01092F100F9CFF9
:1028C000F701862D77FE07C0815058F094919093C0
:1028D000F1003196F9CF815020F091919093F10061
:1028E000FACFE20EF31E8091E80085FF0FC00115BC
:1028F000110511F481100AC089818FBFC1CF5D9885
:1029000084E680931C038C2D9B2D03C0A092E800CD
:10291000F3CF0F90DF91CF911F910F91FF90EF9028
:10292000DF90CF90BF90AF909F908F907F906F90EF
:1029300008951092E90010921703109216039093D5
:102940001503809314030895CF92DF92FF920F93A3
:102950001F93CF93DF9300D0CDB7DEB7F82E8A0157
:102960006B0101151105B1F0F601F7FE02C084916B
:1029700001C0808149835A830E94D41201501109F9
:10298000FFEFCF1ADF0A49815A818111EACF8FEF19
:102990009FEF01C0CA010F900F90DF91CF911F915F
:1029A0000F91FF90DF90CF9008951F93CF93DF9307
:1029B0001F92CDB7DEB7162F2091E80022FFFCCF83
:1029C000612F79830E94C7128BEF8093E800812FDB
:1029D0007981972F0F90DF91CF911F9108951F92CA
:1029E0000F920FB60F921124DF92EF92FF920F9386
:1029F0001F932F933F934F935F936F937F938F9387
:102A00009F93AF93BF93EF93FF93CF93DF93CDB794
:102A1000DEB76C97DEBFCDBF1092E9008091E80071
:102A200083FF23C168E0CE0145960E94C71282EF62
:102A30008093E8003D8937FF05C08091E80080FF62
:102A4000FCCF03C08EEF8093E800832F807609F0DF
:102A5000F0C02E894F89D88C21110CC0303829F450
:102A6000809119038093F10002C01092F10010923E
:102A7000F100F4C0842F90E09D29213049F43111F8
:102A8000EDC0019709F0EAC0809119038D7F0AC05B
:102A9000233059F43111E2C0019709F0DFC0809171
:102AA0001903826080931903D9C0253041F48091C5
:102AB000E80080FFFCCF40684093E300CFC02630A1
:102AC00009F08DC0EB8CFC8C22E0D2122CC080E08F
:102AD00090E00E9499140E94621399E08E010F5FAA
:102AE0001F4FF801292F11922A95E9F79983DA826D
:102AF00091E09E8390EA98879AEF99872091160338
:102B000030911703275F3F4F3C832B838D83C70191
:102B10000E94991449E050E0B80180E00E94A4149A
:102B20000E9462139BC0C7010E9499140E949117D2
:102B3000BE016B5E7F4F0E943317009719F00CF0B7
:102B40008DC090C081E0D8120EC08B8D9C8D0897EF
:102B500019F481E0809313038091130381112FC036
:102B600069EB71E031C0E3E0DE127CC08F8988231D
:102B700049F1823029F440E862E18EED91E01CC019
:102B8000813029F440E862E18BEC91E015C083309C
:102B900009F068C00E9491178E010F5F1F4FB801A6
:102BA0000E945217F80101900020E9F73197E01BCD
:102BB000F10B40E06E2FC8010E9402134DC067EA7E
:102BC00071E002C061EF71E06115710509F44AC05E
:102BD000FB01449150E080E80E94A4143FC02730DC
:102BE00009F440C0283021F481E08093F10036C020
:102BF0002930A1F53370B1F5EBE2F1E081E021E09D
:102C000036E39081992361F08093E9002093EB00F3
:102C100091919093EC003093ED008F5F873089F7AE
:102C20008EE78093EA001092EA008F8980931A035E
:102C300015C08B8D9C8D0E949914898D811105C0C2
:102C4000CE0145960E94A91107C00E949117BE01AE
:102C50006B5E7F4F0E947117882321F08EEF809367
:102C6000E80003C081E28093EB006C960FB6F89405
:102C7000DEBF0FBECDBFDF91CF91FF91EF91BF912E
:102C8000AF919F918F917F916F915F914F913F9104
:102C90002F911F910F91FF90EF90DF900F900FBE3B
:102CA0000F901F9018958093E9008091F20088237F
:102CB00019F08AE38093E80008951F920F920FB6EF
:102CC0000F9211242F933F934F935F936F937F93B2
:102CD0008F939F93AF93BF93CF93EF93FF93C09145
:102CE000E1008091E100837F8093E1008093E10027
:102CF000C3FF0FC01092E90081E08093EB001092B7
:102D0000EC0082E38093ED0010921A0388E0809338
:102D1000F000C2FF19C083E00E94531680911C038B
:102D2000882339F080911C03815080931C038823F1
:102D300089F180911B03882339F080911B03815016
:102D400080931B03882341F1C4FF10C08091E200EF
:102D50008E7E81608093E2008091E1008F7E80937F
:102D6000E100809118038E7E806111C0C0FF16C003
:102D70008091E2008E7E80618093E2008091E1008C
:102D80008E7E8093E100809118038E7E8160809317
:102D9000180304C05D9ACDCF289AD6CFFF91EF914A
:102DA000CF91BF91AF919F918F917F916F915F91E3
:102DB0004F913F912F910F900FBE0F901F9018953C
:102DC00010921A0310921903109218030E943F13D5
:102DD000E1EEF0E080818E7E80838DE08093E200E2
:102DE000559A209A08950E94271A08950E94E50F87
:102DF0000E94F51682E193E00E94E0160E949C0179
:102E0000C0E0D0E00E94CA022097E1F30E940000D7
:102E1000F9CF0895EF92FF920F931F93CF93DF9313
:102E20007B01FC01C281D38100E010E0209781F09A
:102E3000E881F9810280F381E02DB701CE01099587
:102E400097FD08C0080F191F0884D985C02DEECF43
:102E5000C80102C08FEF9FEFDF91CF911F910F91BB
:102E6000FF90EF9008950F931F93CF93DF938B0103
:102E7000FC01C281D381209771F0E881F98104803F
:102E8000F581E02DB801CE010995009731F4088451
:102E9000D985C02DF0CF80E090E0DF91CF911F91D8
:102EA0000F9108950F931F93CF93DF938B01FC0134
:102EB000C281D381209771F0E881F9810680F78182
:102EC000E02DB801CE010995080F111D0884D985A0
:102ED000C02DF0CFF8011082DF91CF911F910F919B
:102EE00008950F931F93CF93DF938B01FC01C28151
:102EF000D381209771F0E881F9810190F081E02D74
:102F0000B801CE010995811106C00884D985C02D6C
:102F1000F0CF80E001C081E0DF91CF911F910F9150
:102F200008958091210381110DC082E080931D03DB
:102F300084E080931E031092200310921F0381E00F
:102F4000809321038DE193E00895DB018F939F939C
:102F50000E942B18BF91AF91A29F800D911DA39F3E
:102F6000900DB29F900D11240895991B79E004C033
:102F7000991F961708F0961B881F7A95C9F78095B8
:102F80000895AA1BBB1B51E107C0AA1FBB1FA617B0
:102F9000B70710F0A61BB70B881F991F5A95A9F702
:102FA00080959095BC01CD010895A1E21A2EAA1B2F
:102FB000BB1BFD010DC0AA1FBB1FEE1FFF1FA217E9
:102FC000B307E407F50720F0A21BB30BE40BF50BE6
:102FD000661F771F881F991F1A9469F7609570956F
:102FE000809590959B01AC01BD01CF010895052E00
:102FF00097FB1EF400940E940E1857FD07D00E9404
:10300000D51707FC03D04EF40C940E18509540953C
:10301000309521953F4F4F4F5F4F08959095809584
:10302000709561957F4F8F4F9F4F0895EE0FFF1F53
:103030000590F491E02D0994A29FB001B39FC001C7
:10304000A39F700D811D1124911DB29F700D811DD4
:103050001124911D08950E941C18A59F900DB49FE6
:10306000900DA49F800D911D11240895CF93DF939F
:103070008230910510F482E090E0E0912B03F09112
:103080002C0320E030E0A0E0B0E0309739F140813F
:10309000518148175907B8F04817590771F48281D0
:1030A0009381109729F013969C938E9312972CC0BE
:1030B00090932C0380932B0327C02115310531F009
:1030C0004217530718F0A901DB0101C0EF019A0173
:1030D000BD01DF010280F381E02DD7CF211531053D
:1030E000F9F0281B390B2430310580F48A819B814B
:1030F0006115710521F0FB019383828304C09093D5
:103100002C0380932B03FE01329644C0FE01E20F94
:10311000F31F8193919322503109398328833AC058
:103120002091290330912A03232B41F4209102019D
:103130003091030130932A03209329032091000149
:10314000309101012115310541F42DB73EB7409171
:10315000040150910501241B350BE0912903F091E6
:103160002A03E217F307A0F42E1B3F0B2817390799
:1031700078F0AC014E5F5F4F2417350748F04E0FD3
:103180005F1F50932A03409329038193919302C0B8
:10319000E0E0F0E0CF01DF91CF910895CF93DF938E
:1031A000009709F487C0FC01329713821282C09104
:1031B0002B03D0912C03209781F420813181280F9B
:1031C000391F8091290390912A038217930779F57B
:1031D000F0932A03E09329036DC0DE0120E030E084
:1031E000AE17BF0750F412964D915C9113979D0155
:1031F0004115510509F1DA01F3CFB383A283408170
:103200005181840F951F8A179B0771F48D919C91B2
:103210001197840F951F02969183808312968D914A
:103220009C911397938382832115310529F4F093A0
:103230002C03E0932B033EC0D9011396FC93EE932D
:1032400012974D915D91A40FB51FEA17FB0779F412
:1032500080819181840F951F0296D90111969C93CC
:103260008E938281938113969C938E931297E0E0C4
:10327000F0E08A819B81009719F0FE01EC01F9CF03
:10328000CE01029628813981820F931F2091290354
:1032900030912A032817390769F4309729F41092DE
:1032A0002C0310922B0302C013821282D0932A03A4
:1032B000C0932903DF91CF910895A0E0B0E0E3E649
:1032C000F9E10C94391AEC01CB01209719F40E9412
:1032D0003618B8C0FE01E60FF71F9E0122503109D3
:1032E000E217F30708F4ACC0D9010D911C911197B6
:1032F00006171707B8F00530110508F49FC0A8019C
:10330000445051094617570708F498C00250110954
:10331000061B170B019311936D937C93CF010E94B1
:10332000CE188CC05B01A01AB10A4E01800E911E0E
:10333000A0912B03B0912C03612C712C60E070E004
:10334000109709F449C0A815B905C9F5ED90FC908E
:103350001197670142E0C40ED11CCA14DB0478F156
:1033600047018A189B08640142E0C40ED11C1296E2
:10337000BC9012971396AC91B5E0CB16D10440F0F7
:10338000B282A38391828082D9018D939C9309C0DC
:103390000E5F1F4F0E0D1F1DF90111830083EB2DD2
:1033A000FA2F6115710531F0DB011396FC93EE9352
:1033B000129744C0F0932C03E0932B033FC06D9110
:1033C0007C9111976616770608F43B01BD011296B1
:1033D0000D90BC91A02DB4CF6091290370912A0368
:1033E00068157905E9F468167906D0F44091000172
:1033F000509101014115510541F44DB75EB76091FF
:10340000040170910501461B570BE417F507C0F442
:10341000F0932A03E0932903F901918380830EC07E
:103420000E9436187C01009759F0A801BE010E9445
:103430002C1ACE010E94CE18C70104C0CE0102C0D2
:1034400080E090E0CDB7DEB7EEE00C94551A81E055
:1034500090E0F8940C946C1AFB01DC0102C001901E
:103460000D9241505040D8F708952F923F924F92BD
:103470005F926F927F928F929F92AF92BF92CF9204
:10348000DF92EF92FF920F931F93CF93DF93CDB70D
:10349000DEB7CA1BDB0B0FB6F894DEBF0FBECDBF85
:1034A00009942A88398848885F846E847D848C8456
:1034B0009B84AA84B984C884DF80EE80FD800C815F
:1034C0001B81AA81B981CE0FD11D0FB6F894DEBF42
:1034D0000FBECDBFED01089511E0CCEFD1E004C0E7
:1034E000FE010E9418182296CE3FD107C9F7F89422
:0234F000FFCF0C
:1034F20000002D038000C800010F00F4010400D079
:10350200070401750E750E750E750E750E01FFFF1F
:10351200FFFF00E100000000000000C18081000008
:103522000004000F00200037005500780000000062
:10353200006C0A00000000DF09E4092901160200FC
:10354200000000850A000000001B04EE03C303CB49
:1035520003DE03ED039C01B501CF01EA0107022658
:1035620002470269028E02B502DE020A030000006F
:1035720000DF09E409F316F316000000006C0A00EC
:10358200000000F31600000000850A000000004160
:0C3592001188116B117B1157116811009A
:00000001FF
